:020000040800F2
:10000000680600206102000885070008190400083E
:100010008107000869030008ED08000800000000DF
:10002000000000000000000000000000E5070008DC
:100030006D0300080000000089070008E9070008B8
:100040007B0200087B0200087B0200087B0200089C
:100050007B0200087B0200087B0200087B0200088C
:100060007B0200087B0200087B0200087B0200087C
:100070007B0200087B0200087B0200087B0200086C
:100080007B0200087B0200087B02000800000000E1
:100090000000000000000000000000007B020008DB
:1000A0007B0200087B0200087B0200087B0200083C
:1000B0007B0200087B0200087B0200087B0200082C
:1000C0007B0200087B0200087B0200087B0200081C
:1000D0007B0200087B0200087B0200080000000091
:1000E0007B0200087B0200087B0200080000000081
:1000F0000000000000000000000000007B0200087B
:10010000000000007B0200087B0200087B02000860
:1001100000000000000000000000000000000000DF
:100120007B0200087B0200087B0200087B020008BB
:100130007B0200080000000000000000000000003A
:100140000000000000000000000000007B0200082A
:100150007B0200087B0200087B0200087B0200088B
:100160007B0200087B020008000000000000000085
:10017000000000000000000000000000000000007F
:10018000000000007B0200080000000000000000EA
:100190007B02000800F002F800F052F814A696E87E
:1001A000000CB244B344DA4501D100F049F8BAE892
:1001B0000F000FA696E83000A5EB040504EB060738
:1001C000AAEB0704A7F101074FEA15154FEA34140B
:1001D000A4F10104AC4201D300F032F813F0010F96
:1001E00018BFFB1A43F0010300F001F8DBE71847E2
:1001F000DC070000FC070000103A24BF78C878C173
:10020000FAD8520724BF30C830C144BF04680C601C
:1002100070470000704700000023002400250026DE
:10022000103A28BF78C1FBD8520728BF30C148BF59
:100230000B6070471FB500F0B0FB1FBD10B510BDBF
:1002400000F058F81146FFF7F5FF00F051FB00F001
:1002500076F803B4FFF7F2FF03BC00F07DF800006E
:100260000948804709480047FEE7FEE7FEE7FEE74A
:10027000FEE7FEE7FEE7FEE7FEE7FEE70448054986
:10028000054A064B70470000D90800089501000890
:100290006800002068060020680200206802002034
:1002A0004FF0000200B5134694469646203922BF0F
:1002B000A0E80C50A0E80C50B1F12001BFF4F7AF5A
:1002C000090728BFA0E80C5048BF0CC05DF804EB3C
:1002D000890028BF40F8042B08BF704748BF20F8AA
:1002E000022B11F0804F18BF00F8012B70477047A8
:1002F00070477047754600F02BF8AE46050069461A
:10030000534620F00700854618B020B5FFF7B6FF2A
:10031000BDE820404FF000064FF000074FF0000806
:100320004FF0000BAC46ACE8C009ACE8C009ACE843
:10033000C009ACE8C00921F007018D46704710B52F
:100340000446AFF300802046BDE81040FFF781BFB0
:10035000004870470800002001491820ABBEFEE7A6
:100360002600020070470000FEE700007047000012
:1003700080B586B043F63000C4F202000168C022A6
:1003800041F0020101600068012100F002000090CC
:1003900000980420059002200190029040F2004055
:1003A00003910491C4F202006946009200F060F8E3
:1003B00006B080BD70B586B043F63000C4F20200CE
:1003C0000168002441F0010101600068202100F073
:1003D000010000900098052005900220C4F202045C
:1003E0006D46019000260091049002902046294617
:1003F000039600F03DF84020009001200490204634
:10040000294600F035F880200090204629460496C1
:1004100000F02EF806B070BDFEE7000080B588B091
:1004200043F64000C4F20200016841F4001101608B
:100430000068694600F400100090009800200090C9
:10044000CDE90400CDE9020048F2A060C0F201004D
:1004500001904FF4804007904FF48060069045F281
:100460000040C4F2000000F06BF808B080BD00004E
:100470002DE9F04F0C6894FAA4F2B2FA82F234FA41
:1004800002F35AD04FF001084FF0030C0DE000BF0B
:100490004B6807686FEA09063740AB403B4303608F
:1004A0000C68013234FA02F347D008FA02F31C4018
:1004B000F6D0D1F804E0AEF10103012B94FAA4F3D5
:1004C00014D8B3FA83F7D0F808907F00D1E9025B23
:1004D0000CFA07FA29EA0A09BD4045EA09058560D0
:1004E00045680BFB04F7A5433D434560B3FA83F32E
:1004F0000E69C7685D000CFA05F927EA0907AE40E6
:100500003E43BEF1020FC660C2D1E7B2260A96FA98
:10051000A6F6002F08BFB6FA86F34FF0200708BFF3
:100520002427D1F814E0C4599B000F269E40B44301
:100530000EFA03F32343C351AAE70020BDE8F08F6E
:10054000F0B585B0044600680D4620F0010020603B
:1005500001A800F081F8D5E9011CD5E90323606A00
:100560001A4320F01F0010436062DDF80CE04DF6E6
:100570008360C4F21B30AEFB000360689A0C4FF43A
:100580009676724348F6381620F03F00C0F24106D6
:1005900040EA9340A2FB0626606048F2A062206A0F
:1005A000C0F20102571C20F03F00B94238BF9E0C38
:1005B000731C1843914220620FD91920BCF1000F1F
:1005C00008BF03204843BEFBF0F0010508BF01202F
:1005D00040EA0C0040F4004007E04800BEFBF0F0A9
:1005E00040F6FC71084208BF0420E1694CF6FF7236
:1005F00091430843E06105F1140328680ECBA76816
:1006000048F2FF36B74319433943A160216821F00E
:100610001A0108432060206840F001002060206833
:1006200020F4806040EA02010020216005B0F0BDA6
:1006300044F6D351C1F26201A0FB01014FF0FF303B
:1006400000EB91104EF21001CEF200014860002044
:10065000886005200860704780B543F6040EC4F238
:10066000020EDEF8042002F00C0342F20042082BD6
:10067000C0F2F40206D0042B22D147F64002C0F2A9
:100680007D121DE0DEF80030DEF800C05B0247F6A8
:100690004003C0F27D1358BF13460CF03F0CDEF848
:1006A0000020B3FBFCFCDEF80030C2F3881202FB32
:1006B0000CFCC3F30143022202EB4302BCFBF2F247
:1006C0000260DEF8043040F6B411C3F30313C0F641
:1006D0000001C95C40F6C41322FA01F14160DEF862
:1006E0000420C0F60003C2F382229A5C21FA02F2CF
:1006F0008260DEF80420C2F342329A5CD140C160CD
:1007000080BD00000246006840062CD42DE9F04769
:1007100010684FF6BF73D1E9009820EA030CD1E9C5
:1007200002EA4CEA090401F1100744EA0804E0CFA8
:1007300044EA0E0444EA0A04D1E9070325432F439F
:1007400038433043184310605068B3F5005F20F021
:10075000040040EA16405060BDE8F04704BF888CB2
:100760001061002000E00120D16921F40061D16115
:100770007047000040F20001C2F2000108607047BB
:10078000FEE70000FEE700007047000010B58AB0E9
:1007900043F64400C4F2020001686C4641F4805103
:1007A00001600068282100F48050009000982046E5
:1007B000FFF776FD4FF482704FF400710190002036
:1007C00005910821CDE90200CDE9061008900490BA
:1007D00043F20000C4F201002146FFF793FF0AB084
:1007E00010BD00007047000070470000B0B543F630
:1007F0000805C4F20205D5F8F803022161F30200EE
:10080000C5F8F803D5F8F80300F007000228F9D17D
:1008100047F20000C4F200000168022262F38F3147
:10082000016055F8081C102262F3C70145F8081C46
:1008300055F8081C41F0010145F8081C55F8081C42
:100840008907FBD555F8041C48F20002CFF6BF72A9
:10085000114045F21042114345F8041C55F8041CA0
:10086000012262F3114145F8041C55F8081C41F0BF
:10087000807145F8081C00BF55F8081C8901FBD59C
:1008800041684904FCD52868042120F0F000286064
:10089000286861F38C2028602868022120F46040D9
:1008A0002860286861F30100286000BF286800F014
:1008B0000C000828FAD14BF60054C0F2015420462F
:1008C000FFF7B6FE2046FFF755FFD5F8840020F06D
:1008D0008070C5F88400B0BD4EF68850CEF200009E
:1008E000016841F47001016070470000FEE70000FC
:1008F00082B043F64000C4F2020041684FF6FF02A6
:1009000041F48041416041684FF0FF3301F4804180
:1009100000910099016841F080510160006800F089
:100920008050019001984EF60C50CEF20000016804
:10093000114040F20032C0F2FA52114301600168E6
:10094000C1F3022181F00702042A28BF04220339DF
:1009500003FA02F238BF0021D24302FA01F1090181
:10096000C175FFF743FFFFF725FDFFF70FFF43F2C8
:100970000000C4F20100016841F040010160FFF78E
:10098000F7FCFFF74BFD45F20040C4F200000168A0
:1009900041F00101016000BFFEE7F1EE100A4FF6E1
:1009A000FF71C0F2C03120EA010040F04070E1EE7A
:1009B000100A70470000000000000000010203045C
:1009C000060708090000000001020304F0090008FE
:1009D0000000002008000000F8010008F8090008E5
:1009E0000800002060060000180200080000000057
:0809F0000024F40000000000E7
:040000050800019559
:00000001FF
